:10200000203B0020F5930000ED940000ED940000CB
:1020100000000000000000000000000000000000C0
:10202000000000000000000000000000ED9400002F
:102030000000000000000000ED940000ED9400009E
:10204000ED940000ED940000ED940000ED9400008C
:10205000ED940000ED9400000D290000ED940000C7
:10206000ED940000157B00002D7B0000457B0000F7
:102070005D7B0000757B00008D7B00005D30000003
:10208000713000008530000015310000293100005A
:102090003D3100000000000000000000ED94000051
:1020A000ED940000ED940000ED940000ED9400002C
:1020B0000000000010B5064C2378002B07D1054B1B
:1020C000002B02D0044800E000BF0123237010BDA4
:1020D000800100200000000008BE0100084B10B580
:1020E000002B03D00749084800E000BF07480368F9
:1020F000002B00D110BD064B002BFBD09847F9E711
:10210000000000008401002008BE010008BE01009C
:102110000000000080B582B000AF78607B680022CC
:102120001A70C046BD4602B080BD000080B582B0C6
:1021300000AF02003960FB1D1A70FB1D1B78012BDC
:102140000AD0022B0FD0002B14D10E4B0D4A9169EF
:102150003A680A439A610FE00A4B0A4AD1693A6821
:102160000A43DA6108E0074B064A116A3A680A43F3
:102170001A6201E0172300E000231800BD4602B0F8
:1021800080BDC0460004004080B582B000AF7860DA
:102190007B6880221A707B6800225A707B6801225B
:1021A0009A707B680022DA70C046BD4602B080BDDE
:1021B00080B582B000AF0200FB1D1A70FB1D1B78BA
:1021C000002B02D0012B07D00DE0084B074A126C00
:1021D00002210A431A6406E0044B044A126C0421EB
:1021E0000A431A64C046BD4602B080BD00080040E4
:1021F00080B584B000AF78607B681B68FB60FB68CB
:102200005B7EDBB25BB2002B01DA012300E000232E
:102210001800BD4604B080BD80B582B000AF7860C4
:102220007B6800221A707B6800225A707B6800224B
:102230005A807B6800221A717B6800221A767B68BC
:1022400000221A627B680022DA617B6800229A60B1
:102250007B6800221A737B68C0225201DA817B6896
:1022600000221A747B6800225A747B6800229A74D8
:102270007B680022DA747B6800221A757B682A2248
:10228000002199547B6800225A757B6800229A7558
:102290007B682422002199547B680022DA847B68C1
:1022A00000221A857B680022DA757B682B220021C8
:1022B00099547B682C2200219954C046BD4602B037
:1022C00080BD000080B598B000AF78600C23FA188C
:1022D000154B1000190050231A00144B9847144B4B
:1022E000FB657B68132B1AD80C23FB187A689200C5
:1022F000D358FB650823FB1818000E4B984708239A
:10230000FB1800229A700823FB1801221A70FB6D3B
:10231000DBB20822BA1811001800074B9847C046D4
:10232000BD4618B080BDC046CCB3010015B2010057
:10233000FFFF000089210000D9880000F0B589B0B6
:1023400000AF786039601F23FB1800221A70102339
:10235000BB611723FB1800221A707B681B683B6166
:102360000C23FB181800CE4B98473B681A780C23B7
:10237000FB181A700C23FB1819001E20C94B984734
:102380001E20C94B98473B682C229B5C002B40D0F9
:102390001623FB183A682B21525C1A703B68197B94
:1023A0001523FB181622BA1812788A181A703B687F
:1023B0002C22995C0F23FB181522BA1812788A1860
:1023C0001A7018E01623FB181B780F2213403A6886
:1023D000127B9B181800B54B98471523FB181A78E9
:1023E0001523FB1801321A701623FB181A781623CE
:1023F000FB1801321A701523FA180F23FB181278F4
:102400001B789A42DED33B68DB891800A74B9847BC
:1024100009E03B681B7B1800A44B98473B68DB89AD
:102420001800A24B98473B685B7D9B00DAB23B6982
:102430001A703B689B7DDB015AB23B685B785BB2EC
:1024400013435BB2DAB23B695A703B681B79342B99
:1024500046D89A00964BD3181B689F461F23FB183B
:102460003A68527C1A701723FB183A68127C1A706B
:102470001023BB6136E01F23FB1801221A701723BB
:10248000FB1802221A701023BB612BE01F23FB18DC
:1024900002221A701723FB1804221A701023BB6142
:1024A00020E01F23FB1801221A701723FB180622B5
:1024B0001A701023BB6115E01F23FB1800221A704D
:1024C0001723FB1808221A701023BB610AE030237F
:1024D000BB6107E02023BB6104E00023BB6101E096
:1024E0001723AEE11F23FB181B781B01DBB2702200
:1024F0001340DAB21723FB181B781343DAB23B6997
:102500009A703B68DB7D3F2B01D9172399E13B682B
:10251000DA7D3B69DA70C0467B681800654B9847E6
:10252000031EF9D13B685A88BB699BB213439AB228
:102530003B6824215B5C9BB2DB009BB213439AB2E5
:102540003B681B7D9BB29B009BB213439AB23B68D6
:102550009B7C9BB2DB189BB213439AB23B68DB7C3B
:102560009BB213439AB23B699A803B681B7E002B57
:1025700000D1C4E0BB69102B00D176E002D8002B5B
:102580004DD0BCE0202B23D0302B00D0B7E03B68EF
:10259000DB7C002B11D03B68DB697F2B0BDC3B68BD
:1025A000DB69803307DB3B681B6A7F2B03DC3B68FE
:1025B0001B6A803301DA172343E13B68DB69FF2B99
:1025C00004DC3B681B6AFF2B00DC91E0172338E139
:1025D0003B68DB7C002B15D03B68DB69364A9342B5
:1025E0000EDC3B68DB69354A934209DB3B681B6ABA
:1025F000314A934204DC3B681B6A304A934201DA59
:1026000017231EE13B68DB692D4A934205DC3B68DA
:102610001B6A2B4A934200DC6CE0172311E13B68F4
:10262000DB7C002B15D03B68DB69264A93420EDC2D
:102630003B68DB69244A934209DB3B681B6A214AF9
:10264000934204DC3B681B6A1F4A934201DA17235A
:10265000F7E03B68DB691D4A934204DC3B681B6A78
:102660001A4A934248DD1723EBE03B68DB7C002BE2
:1026700032D03B68DB69164A93420EDC3B68DB696B
:10268000144A934209DB3B681B6A114A934204DCFB
:102690003B681B6A0F4A93421EDA1723D1E0C046FB
:1026A00015210000ED85000031860000C5220000E4
:1026B0001CB40100F1210000FF01000000FEFFFF3B
:1026C000FF030000FF07000000F8FFFFFF0F0000FE
:1026D000FF7F00000080FFFF3B68DB695B4A93429D
:1026E00004DC3B681B6A594A934207DD1723A8E0C4
:1026F000C04604E0C04602E0C04600E0C046C04616
:102700007B681800524B9847031EF9D13B681A7E2C
:102710003B691A72C0467B6818004D4B9847031EF0
:10272000F9D13B68DB699AB23B699A83C0467B6802
:102730001800474B9847031EF9D13B681B6A9AB2B1
:102740003B691A841423FB183A682C21525C1A70D6
:102750001423FB181B78002B06D01423FB181A78BF
:102760001423FB18013A1A701423FB181B780F2B43
:1027700004D83B682B229B5C0F2B01D9172360E008
:10278000C0467B681800324B9847031EF9D13B685E
:102790009B683A682B21525C120513431422BA1825
:1027A0001278120413433A68D28913433A68127BB1
:1027B0001A433B691A613B682A229A5C3B691A7585
:1027C0003B690F229A753B6824229B5C002B1ED02C
:1027D0003B68DB8C1F4A934201D9172331E03B68E9
:1027E000DA8C3B699A843B6828229B5E1A4A9342A2
:1027F00005DC3B6828229B5E184A934201DA1723C6
:102800001FE03B6828229B5E9AB23B69DA84144B36
:102810001B68DB089BB21B029AB2E023DB0013406B
:102820009AB2104B5C681B686101DD0E0D43E60E29
:10283000ABB2FF210B409BB213439AB23B691A859E
:1028400000231800BD4609B0F0BDC046FFFF0000E0
:10285000F1210000FF0F0000FF07000000F8FFFF5C
:10286000246080002060800080B584B000AFF860F4
:10287000B9607A60FB68BA681A6080235B0219004D
:102880000220154B9847BB681B78DBB21A00012366
:10289000134001D005231AE0BB681B78DBB21A0095
:1028A0000223134001D01C2311E07B685A78FB6897
:1028B0001A71FB681B79002B02D10120074B984746
:1028C0007A68FB6811001800054B98470300180050
:1028D000BD4604B080BDC0462D210000B1210000DE
:1028E0003D23000080B500AF024B9847C046BD466F
:1028F00080BDC046397C000080B500AF024B9847D0
:10290000C046BD4680BDC0468D7C000080B586B007
:1029100000AF494B9847494B1B8C9BB2DAB2172347
:10292000FB180F210A401A701723FB181A78444B22
:102930009200D3583B61414A3B691B780F210B4001
:10294000D9B23F23D1543D490F23FB184E228A5C54
:102950001A703B691B783B4A1B01D31802331B8852
:102960009BB2BB603B691B78374A1B01D31802330B
:102970001B889BB27B60BA687B68D21A3B695A613C
:102980000F23FB181B780122134016D02B4A4E232D
:102990000121D1543B6910225A743B691B7C1A00F7
:1029A0000123134042D03B695B68002B3ED03B695A
:1029B0005B683A691000984738E00F23FB181B78D2
:1029C0000222134016D01D4A4E230221D1543B69E6
:1029D00000225A743B691B7C1A000223134025D045
:1029E0003B699B68002B21D03B699B683A691000CA
:1029F00098471BE00F23FB181B780422134015D0C7
:102A00000E4A4E230421D1543B6906225A743B6975
:102A10001B7C1A000423134008D03B69DB68002BA1
:102A200004D03B69DB683A6910009847074B984728
:102A3000C046BD4606B080BDE52800000048004104
:102A4000F0010020C0040020A0010020F9280000AF
:102A500080B582B000AF074B7B607B681B7DDBB22B
:102A60001A00012313405A1E9341DBB21800BD46E1
:102A700002B080BD0040004180B582B000AF0200CE
:102A80003960FB1D1A70FB1D1B78012B0AD0022B2D
:102A90000FD0002B14D10E4B0D4A91693A680A43AE
:102AA0009A610FE00A4B0A4AD1693A680A43DA612F
:102AB00008E0074B064A116A3A680A431A6201E0C5
:102AC000172300E000231800BD4602B080BDC046B9
:102AD0000004004080B584B000AF78602F4BFB60ED
:102AE000042101202E4B9847FB682022FF321A83D5
:102AF0002C4B984703001A0001235340DBB2002BF4
:102B000001D0052345E07B681B781B021A00C02317
:102B10009B001A407B685B78DB011900FF230B40A8
:102B20001A437B689B785B0019001E230B401A43F5
:102B30007B68DB789B0419008023DB020B401A437F
:102B40007B681B791B041900C0239B020B401A43AE
:102B5000FB685A60FB689B685B035B0FDBB21A0083
:102B6000082393409AB2104B1A80FB689B689AB274
:102B70000D4B5A807B685A780B4B1A71FB681B8B84
:102B80009BB21A0080235B00134001D0102300E0A9
:102B900000231800BD4604B080BDC046004000417F
:102BA000792A0000512A00000402002080B586B076
:102BB00000AFB9607A600F23FB18021C1A703A4B01
:102BC0001B881A00384B5B885A43BB689A4209D26B
:102BD000BB68364A934203D9BB68354A934201D950
:102BE00018235CE0334B7B617B695B683B613B692D
:102BF0008022D2021A437B695A607B692022FF320D
:102C00001A832D4B984703001A0001235340DBB26F
:102C1000002B04D07B693A695A6005233FE00F23FB
:102C2000FB181B78452B1DD89A00244BD3181B6822
:102C30009F467B691B8B9BB21A0080235B0013406D
:102C400004D07B693A695A60102328E0BB689B086E
:102C50005A007B69DA610BE0BB689B085A007B690C
:102C6000DA6105E07B693A695A60172317E0C046CC
:102C70000F23FB181B789BB2114A13439AB27B694E
:102C80001A80C0460C4B984703001A00012353409A
:102C9000DBB2002BF6D17B693A695A600023180039
:102CA000BD4606B080BDC04604020020FF3F800044
:102CB0000060800000400041512A0000F0B4010093
:102CC00000A5FFFF80B588B000AFF860B960BB1DFC
:102CD0001A804A4B1B881A00484B5B885A43FB6892
:102CE0009A4201D2182384E0444B1B88013B1A000E
:102CF000FB68134001D018237BE0404B1B88BA1DB2
:102D000012889A4201D9172373E03D4B7B613D4BFA
:102D1000984703001A0001235340DBB2002B01D077
:102D2000052366E07B69384A1A80C046354B9847D0
:102D300003001A0001235340DBB2002BF6D17B695C
:102D40002022FF321A83FB685B08FB611A23FB1801
:102D500000221A8032E01A23FB181B88BA68D318A5
:102D60001A781823FB181A801A23FB181A88BB1D1F
:102D70001B88013B9A4211DA1A23FB181B88013386
:102D8000BA68D3181B781B021AB21823FB1800214B
:102D90005B5E13431AB21823FB181A80FB695A1C96
:102DA000FA615B001A001823FB181B8813801A2392
:102DB000FB181A22BA18128802321A801A23FA183B
:102DC000BB1D12881B889A42C5D30C4B1B7901226C
:102DD0005340DBB2002B0BD0BB1D1B883F2B07D809
:102DE000FB68002219000420084B9847030000E00C
:102DF00000231800BD4608B080BDC0460402002074
:102E000000400041512A000044A5FFFFAD2B000007
:102E100080B588B000AFF860B960BB1D1A80384B30
:102E20001B881A00364B5B885A43FB689A4201D2D2
:102E3000182360E0324B1B88013B1A00FB681340EB
:102E400001D0182357E02E4B1B88BA1D12889A42D6
:102E500001D917234FE02B4B7B612B4B9847030085
:102E60001A0001235340DBB2002B01D0052342E0BE
:102E70007B692022FF321A83FB685B08FB611A23FF
:102E8000FB1800221A802EE0FB695A1CFA615B00D5
:102E90001A001223FB1812881A801A23FB181B88A9
:102EA000BA68D3181222BA181288D2B21A701A232A
:102EB000FB181A88BB1D1B88013B9A420CDA1A23A7
:102EC000FB181B880133BA68D3181222BA1812886B
:102ED000120A92B2D2B21A701A23FB181A22BA1826
:102EE000128802321A801A23FA18BB1D12881B8816
:102EF0009A42C9D300231800BD4608B080BDC04621
:102F00000402002000400041512A000080B584B036
:102F100000AF78601E4B1B881A001D4B5B885A431C
:102F20007B689A4201D218232DE0194B1B889B0025
:102F3000013B1A007B68134001D0182323E0154B96
:102F4000FB60154B984703001A0001235340DBB286
:102F5000002B01D0052316E0FB682022FF321A83E4
:102F60007B689B085A00FB68DA61FB680B4A1A8091
:102F7000C046094B984703001A0001235340DBB2B7
:102F8000002BF6D100231800BD4604B080BDC0461A
:102F90000402002000400041512A000002A5FFFF6A
:102FA00080B586B000AF78602A4B7B617B692022B8
:102FB000FF321A837B699B683B613B691B0C0722CC
:102FC000134008229A401300DAB27B681A703B69FA
:102FD0009AB27B685A80204B1B889BB21B099AB21D
:102FE0000E23FB1807210A401A800E23FB181B88AA
:102FF000072B03D17B6800225A600AE00E23FB18DE
:103000001B880622D31A04229A4013001A007B68F8
:103010005A60114B1B889AB20C23FB1807210A40F7
:103020001A800C23FB181B88072B03D17B68002216
:103030009A600AE00C23FB181B880722D31A04228B
:103040009A4013001A007B689A60C046BD4606B0DD
:1030500080BDC046004000410040800080B500AF08
:103060000020024B9847C046BD4680BD9930000005
:1030700080B500AF0120024B9847C046BD4680BDD9
:103080009930000080B500AF0220024B9847C0463F
:10309000BD4680BD9930000080B586B000AF02000B
:1030A000FB1D1A70FB1D1A78184B9200D3583B6118
:1030B0003B691B68DA6A3B695B6B1A403B699B6B37
:1030C0001340FB6000237B6119E0114B7A69920089
:1030D000D358FA6813400FD03A697B699B00D31824
:1030E00004331B683A69100098473B691B68084A1B
:1030F000796989008A58DA627B6901337B617B696F
:103100000B2BE2DDC046BD4606B080BD1005002099
:1031100008B6010080B500AF0020024B9847C046BA
:10312000BD4680BD5131000080B500AF0120024B8B
:103130009847C046BD4680BD5131000080B500AF04
:103140000220024B9847C046BD4680BD5131000069
:1031500080B584B000AF0200FB1D1A70FB1D1A7809
:10316000284B9200D358FB60FB681B689B7BDBB24B
:10317000FA68127E1340DAB2FB68597E0B23FB1803
:103180000A401A700B23FB181B780122134008D049
:10319000FB689B68FA6810009847FB681B6801226F
:1031A0009A730B23FB181B780222134008D0FB688C
:1031B000DB68FA6810009847FB681B6802229A7364
:1031C0000B23FB181B781022134008D0FB681B69E7
:1031D000FA6810009847FB681B6810229A730B234B
:1031E000FB181B782022134008D0FB685B69FA6843
:1031F00010009847FB681B6820229A73C046BD46A2
:1032000004B080BD1C05002080B582B000AF78609E
:103210007B6800221A70C046BD4602B080BD000027
:1032200080B582B000AF02003960FB1D1A70FB1D33
:103230001B78012B0AD0022B0FD0002B14D10E4B80
:103240000D4A91693A680A439A610FE00A4B0A4AAB
:10325000D1693A680A43DA6108E0074B064A116A05
:103260003A680A431A6201E0172300E000231800BD
:10327000BD4602B080BDC0460004004080B582B0AB
:1032800000AF78607B6880221A707B6800225A70D9
:103290007B6801229A707B680022DA70C046BD46C6
:1032A00002B080BD80B500AF054B9B78DBB21A0041
:1032B000022313405A1E9341DBB21800BD4680BD65
:1032C0000020004180B584B000AF78607B681B6847
:1032D000FB60FB68DB69072213405A1E9341DBB297
:1032E0001800BD4604B080BD80B582B000AF7860E4
:1032F000C0467B681800044B9847031EF9D1C046AE
:10330000BD4602B080BDC046C5320000F0B595B0E4
:1033100000AFF860B96000237B630023BB64002327
:103320007B643B2308229446BC44634400221A7009
:10333000FB681B683B63FB681B68FB622323082256
:10334000BA18D418FB6A1800DB4B984703002370A7
:103350000C2308229446BC4463441800D74B98477A
:10336000BB68DB69FB63BB681B6ABB63FB6B002B41
:1033700006D1FB6A00211800D14B98470300FB637C
:10338000FB6BDAB20C2308218C46BC4463441A70F0
:103390000C2308229446BC44634402225A70FB6BFF
:1033A0001B0CDBB20C2208218C46BC446244110089
:1033B0001800C44B9847BB6B002B06D1FB6A012158
:1033C0001800BF4B98470300BB63BB6BDAB20C23FA
:1033D00008218C46BC4463441A700C23082294468E
:1033E000BC44634402225A70BB6B1B0CDBB20C2240
:1033F00008218C46BC44624411001800B14B984728
:10340000BB689A8AFB68DA80BB68DA8AFB681A8133
:10341000BB681B7E002B03D1AB4B9847031E02D029
:103420008023FB6401E00023FB64BB681B69002B65
:1034300004D0BB681B69FA6C1343FB64BB689B68D0
:10344000FA6C1343FB64BB6824229B5C002B04D002
:10345000FB6C8022D2051343FB64BB689B6A002B84
:1034600004D0BB689B6AFA6C1343FB64BB682C22D4
:103470009B5C002B05D1BB689A6880239B049A4211
:1034800004D1FB6C802212051343FB64BB682D2220
:103490009B5C002B04D0FB6C802212041343FB6462
:1034A000BB682E229B5C002B04D0FB6C8022D203D5
:1034B0001343FB643B6B1A68FB6C1A433B6B1A604B
:1034C0003B6B802252005A60232308229446BC445E
:1034D00063441B781433DBB218007C4B984703001D
:1034E0007B62BB681B68FA22920053433B62BB6855
:1034F0005B68FA2292005343FB61BB681B8EBB6181
:10350000734B786A984705000E00714B386A9847EC
:10351000386079607B6ABA695A436D4B10009847EE
:103520006C4C6D4A6D4BA04703000C001800210045
:103530006B4C00226B4BA04703000C001A002300C9
:10354000644C38687968A04703000C001A00230017
:10355000654C28003100A04703000C001D00260028
:103560003B6A5A005A4B1000984702000B005C4C13
:1035700028003100A04703000C00180021005A4C1D
:1035800000225A4BA04703000C001D0026003B6A96
:103590005A004F4B1000984702000B00544C280073
:1035A0003100A04703000C0019002200514B080015
:1035B0001100984703007B63BB689A6880239B04D3
:1035C0009A4245D1424B786A9847454C02000B001D
:1035D000A04703000C001D0026003D4BF8699847EA
:1035E0003C4C0022444BA04703000C001A0023006F
:1035F0003F4C28003100A04703000C0018002100B8
:10360000394C0022394BA04703000C00190022005E
:10361000384B08001100984703007B647B6C002B3B
:1036200009D0364BF969786A984703009A1E7B6C7B
:10363000D31ABB640CE0FB695A007B6AD3185A1E8C
:10364000FB6959002D4B100098470300013BBB64F8
:103650007B6BFF2B08DC7B6B002B05DBBB6CFF2B34
:1036600002DCBB6C002B06DA3B2308229446BC44E8
:10367000634440221A703B2308229446BC446344AE
:103680001B78402B0ED07B6BFF221A40BB6C1B04B7
:103690001900FF231B040B4013437A6C12061A43D4
:1036A0003B6BDA603B2308229446BC4463441B789E
:1036B0001800BD4615B0F0BD017A00007D32000053
:1036C00045780000D9880000A5320000118700006D
:1036D0005DAF010045A3010095D626E80B2E113EF3
:1036E000BD9401000000244045A801000000F03F07
:1036F000DD9A010071AE010000000840398201002E
:1037000090B58BB000AFF860B9607A60FB68BA68BA
:103710001A60FB681B687B62FB681B6818003B4BE8
:10372000984703003B623B6A0233FB613B6A1433F8
:10373000BB610122FB699A40130019000220344B3F
:1037400098471423FB181800324B98477B681A7B64
:103750001423FB181A70BB69DBB21422BA181100CB
:1037600018002D4B9847BB69DBB218002B4B9847CC
:103770007B681B7B00211800294B98477B6A1B68DC
:103780000222134001D01C233BE07B6A1B6801220C
:10379000134001D0052334E0FB681B681722BC18D6
:1037A00018001A4B9847030023701E4A1723FB1872
:1037B0001B78110018001C4B98471723FB181A7828
:1037C0001A4B9200F968D150FB6800221A76FB6808
:1037D00000225A76FB6800225A83FB6800229A83F3
:1037E000FB68252200219954FB6800221A627B6A3B
:1037F00014221A607A68FB68110018000C4B984775
:1038000003001800BD460BB090BDC046017A000011
:103810002132000009320000ED85000031860000F1
:10382000B977000021400000657A00002C050020D7
:103830000D33000080B584B000AF78607B681B68F2
:10384000FB60FB681B7EDBB21A00022313400BD027
:10385000FB6802221A76FB685B8B9BB21A0002237C
:10386000134011D0412310E0FB685B8B9BB21A0020
:103870000423134008D0FB685B68C02292021A43FD
:10388000FB685A60182300E000231800BD4604B00E
:1038900080BD80B584B000AF78607B681B68BB607A
:1038A0000E23FB1800221A800FE00E23FB180E22B5
:1038B000BA18128801321A807B681B890E22BA1846
:1038C00012889A4201D312230EE0BB681B7EDBB242
:1038D0001A000123134006D1BB681B7EDBB21A001D
:1038E00002231340E1D000231800BD4604B080BD80
:1038F00090B585B000AF78600A00FB1C1A707B6839
:103900001B68FB60FB685B688022D2021A43FB687D
:103910005A60FB1C1A78FB685A620B23FC187B6800
:103920001800074B984703002370FB6801221A76A2
:103930000B23FB181B781800BD4605B090BDC04690
:103940009338000090B587B000AF786039607B682D
:103950001B68FB601423FB183A6852881A801223F4
:10396000FB1800221A80FB681B681B01DB0FDBB20F
:103970001A000B23FB18511E8A411A703B685B7AB0
:10398000002B06D03B689A7A7B6811001800854BA3
:103990009847FB685B68844A1A40FB685A603B683A
:1039A0001B7A002B42D03B681B885A003B685B7A2D
:1039B0009B0313431A0080231B021A43FB685A62BD
:1039C0001723FC187B681800784B98470300237076
:1039D000FB685B68744A1A40FB685A601723FB183F
:1039E0001B78002B07D11723FC187B681800704B3D
:1039F0009847030023701723FB181B78002B11D165
:103A00003B681B881B0A9BB2782213439BB25A0067
:103A10003B685B7A9B031343012213431A00FB6844
:103A20005A620FE01723FB181B78B6E03B681B882F
:103A30005B0001221A433B685B7A9B0313431A0025
:103A4000FB685A621723FC187B681800574B98478D
:103A5000030023700B23FB181B78002B0BD03B6853
:103A60005B88012B07D1FB685B688022D2021A4376
:103A7000FB685A6005E0FB685B684B4A1A40FB68CC
:103A80005A601723FB181B78002B07D11723FC184B
:103A90007B681800464B9847030023701723FB18D8
:103AA0001B78002B00D075E04BE0FB685B8B9BB272
:103AB0001A002023134001D141236EE07B68DB7A9A
:103AC000002B1ED00B23FB181B7801225340DBB2C6
:103AD000002B04D01423FB181B88002B09D00B23C8
:103AE000FB181B78002B0CD01423FB181B88012B10
:103AF00007D1FB685B688022D2021A43FB685A60D8
:103B00001AE07B6818002B4B98473B685A681223D1
:103B1000FB181B8812217918581C0880D318FA68E2
:103B20002821525CD2B21A701723FC187B68180047
:103B30001E4B9847030023701723FB181B78002B9C
:103B400009D11423FB181B881422BA18591E11809E
:103B5000002BAAD100E0C0467B689B7A002B0AD0DC
:103B60007B681800134B9847FB685B68C022920281
:103B70001A43FB685A607B6818000E4B98473B68F5
:103B80005A681223FB181B88D318FA682821525C44
:103B9000D2B21A701723FB181B781800BD4607B065
:103BA00090BDC046F1380000FFFFFBFF93380000D6
:103BB00035380000E932000080B582B000AF78608F
:103BC00039607B689B8B9BB2002B01D005230CE0F6
:103BD0007B6801229A727B680122DA723A687B68FC
:103BE00011001800034B984703001800BD4602B0AF
:103BF00080BDC0464539000090B587B000AF786001
:103C000039607B681B68FB601423FB183A68528894
:103C10001A807B681800514B98473B685B7A002BF1
:103C200006D03B689A7A7B68110018004C4B984785
:103C3000FB685B684B4A1A40FB685A603B681B7A1A
:103C4000002B0DD03B681B885A003B685B7A9B03B6
:103C500013431A0080231B021A43FB685A6209E0CF
:103C60003B681B885A003B685B7A9B0313431A002E
:103C7000FB685A621723FC187B6818003A4B984778
:103C8000030023701723FB181B78002B07D1172381
:103C9000FC187B681800354B9847030023701723E6
:103CA000FB181B78002B52D11223FB1800221A801C
:103CB00033E0FB685B8B9BB21A002023134001D1D9
:103CC000412347E07B681800244B98473B685A68BB
:103CD0001223FB181B8812217918581C0880D3184E
:103CE0001978FB68282299541723FC187B68180060
:103CF0001D4B9847030023701723FB181B78002BDC
:103D000015D1FB685B8B9BB21A000423134004D0CF
:103D10001723FB181E221A700AE01423FB181B88B5
:103D20001422BA18591E1180002BC2D100E0C046DF
:103D30007B689B7A002B0AD07B681800074B98475A
:103D4000FB685B68C02292021A43FB685A60172323
:103D5000FB181B781800BD4607B090BDE932000083
:103D6000F1380000FFFFFBFF9338000035380000FA
:103D700080B582B000AF786039607B689B8B9BB266
:103D8000002B01D005230CE07B6801229A727B682E
:103D90000122DA723A687B6811001800034B9847D9
:103DA00003001800BD4602B080BDC046F93B0000CC
:103DB00080B584B000AF78607B681B68FB60FB68EF
:103DC000DB69072213405A1E9341DBB21800BD463F
:103DD00004B080BD80B582B000AF7860C0467B681B
:103DE0001800044B9847031EF9D1C046BD4602B0E7
:103DF00080BDC046B13D000080B584B000AF7860A2
:103E00007B681B68FB60FB681B681B01DB0FDBB278
:103E10001A000B23FB18511E8A411A700823FB1845
:103E20007A68528B1A807B689B8B9AB20823FB18A6
:103E30000821791809888A1A1A807B689B8B9BB2A3
:103E4000013B9AB27B689A830B23FB181B78002BEB
:103E500010D07B68DB7A002B1CD07B689B8B9BB2DD
:103E6000012B17D1FB685B688022D2021A43FB68E2
:103E70005A600FE07B68DB7A002B0BD07B689B8B52
:103E80009BB2002B06D1FB685B688022D2021A43EA
:103E9000FB685A607B689B8B9BB2002B0ED17B68C2
:103EA0009B7A002B0AD07B6818000E4B9847FB6862
:103EB0005B68C02292021A43FB685A607B68180054
:103EC000084B98477B681A6A0823FB181B88D3188D
:103ED000FA682821525CD2B21A70C046BD4604B0BE
:103EE00080BDC046D53D000080B584B000AF78608D
:103EF0007B681B68FB60FB685B8B9BB21A0004232A
:103F0000134004D07B6825221E21995424E00A2303
:103F1000FB187A68528B1A807B689B8B9AB20A23B3
:103F2000FB180A21791809888A1A1A807B689B8BEA
:103F30009BB2013B9AB27B689A837B681800084B5E
:103F400098477B681A6A0A23FB181B88D3181B78CA
:103F5000D9B2FB6828229954BD4604B080BDC04642
:103F6000D53D000080B584B000AF78607B681B68E9
:103F7000FB60FB681B7EDBB21A00012313402BD0D1
:103F8000FB6801221A76FB685B8B9BB21A00022346
:103F9000134004D07B682522412199541CE0FB6822
:103FA0005B8B9BB21A000423134015D07B6825223B
:103FB000182199547B6800229A837B689B7A002B96
:103FC0000AD07B681800134B9847FB685B68C022D7
:103FD00092021A43FB685A607B689B8B9AB27B689B
:103FE0005A837B6825229B5CDBB2052B0ED17B6854
:103FF00024229B5CDBB2002B04D17B681800064BAB
:10400000984703E07B681800044B9847C046BD46BC
:1040100004B080BDD53D0000E93E0000F93D000040
:1040200080B586B000AF0200FB1D1A70FB1D1A7828
:10403000934B9200D3587B617B691B683B613B6962
:104040001B681B01DB0FDBB21A000F23FB18511E8C
:104050008A411A700E23FB187A69527E1A707B69A6
:104060001B7EDAB20E23FB180E21791809780A405C
:104070001A707B695B8B9BB2002B09D17B699B8B90
:104080009BB2002B04D07B6918007E4B984770E0F0
:104090007B695B8B9BB2002B39D07B699B8B9BB27E
:1040A000002B34D17B6925229B5CDBB2052B2ED102
:1040B0007B6924229B5CDBB2002B28D13B69032265
:1040C0001A757B6900225A837B6925220021995445
:1040D0007B699B7A002B0BD07B6918006A4B984751
:1040E0003B695B68C02292021A433B695A6002E056
:1040F0003B6901221A760E23FB181B78012213401C
:1041000037D07B69DB687A691000984731E07B69BA
:104110005B8B9BB2002B2CD07B699B8B9BB2002BC3
:1041200027D03B695B8B9BB21A002023134011D12F
:104130000F23FB181B7801225340DBB2002B04D164
:104140007B699B8B9BB2012B04D07B69252241218B
:1041500099540EE07B6924229B5CDBB2002B04D1D6
:104160007B691800494B984703E07B691800484B6E
:1041700098477B695B8B9BB2002B47D07B699B8BFD
:104180009BB2002B42D17B6925229B5CDBB2052BC5
:104190003CD17B6924229B5CDBB2012B36D13B698D
:1041A0001B7EDBB21A000223134002D03B690222BD
:1041B0001A763B6903221A757B6900225A837B6950
:1041C0002522002199540E23FB181B78022213404C
:1041D0000BD07B6924229B5CDBB2012B05D17B6970
:1041E0001B697A691000984710E00E23FB181B78B2
:1041F000012213400AD07B6924229B5CDBB2002B96
:1042000004D17B69DB687A69100098477B692522B5
:104210009B5CDBB2052B2ED07B6925229B5CDBB23D
:10422000002B28D03B6903221A757B6900225A8330
:104230007B6900229A837B6925229B5CDBB2412B40
:104240000ED07B699B7A002B0AD07B6918000E4B3D
:1042500098473B695B68E022D2021A433B695A6087
:104260000E23FB181B780422134004D07B695B6982
:104270007A6910009847C046BD4606B080BDC0466A
:104280002C050020653F0000D53D0000E93E000000
:10429000F93D000080B582B000AF78607B680022F5
:1042A0001A70C046BD4602B080BD000080B582B025
:1042B00000AF02003960FB1D1A70FB1D1B78012B3B
:1042C0000AD0022B0FD0002B14D10E4B0D4A91694E
:1042D0003A680A439A610FE00A4B0A4AD1693A6880
:1042E0000A43DA6108E0074B064A116A3A680A4352
:1042F0001A6201E0172300E000231800BD4602B057
:1043000080BDC0460004004080B582B000AF786038
:104310007B6880221A707B6800225A707B680122B9
:104320009A707B680022DA70C046BD4602B080BD3C
:1043300080B500AF054B9B78DBB21A000223134017
:104340005A1E9341DBB21800BD4680BD00200041DB
:1043500080B588B000AF786039607B681B683B61CE
:104360007B681B68FB603B681A897B68DA803B6866
:104370001A7C7B681A720823FB181800494B98476F
:104380003B68DB69BB613B681B6A7B61BB69002BD7
:1043900006D1FB6800211800434B98470300BB611E
:1043A000BB69DAB20823FB181A700823FB18022233
:1043B0005A70BB691B0CDBB20822BA181100180036
:1043C0003A4B98477B69002B06D1FB680121180006
:1043D000354B984703007B617B69DAB20823FB18F1
:1043E0001A700823FB1802225A707B691B0CDBB27F
:1043F0000822BA18110018002C4B98473B689B7E86
:10440000002B03D12A4B9847031E02D08023FB6167
:1044100001E00023FB613B6825229B5C002B05D15A
:104420003B685A6980239B049A4204D1FB6980222D
:1044300012051343FB613B685A683B685B69134391
:104440003A682421525C920713433A682621525C51
:10445000D2051343FA691343FB613B691A68FB6990
:104460001A433B691A603B685B8980225200134300
:104470009BB21A003B695A603B689B895A003B68B3
:10448000DB895B041A433B681B7CDB0313433A68FC
:10449000527C13431A003B695A6200231800BD4640
:1044A00008B080BD0943000045780000D9880000AD
:1044B0003143000090B58BB000AFF860B9607A600E
:1044C000FB68BA681A60FB681B687B627B6A1B68C2
:1044D0000222134001D01C2369E07B6A1B68012281
:1044E000134001D0052362E0FB681B681800324BC3
:1044F000984703003B623B6A0233FB613B6A14331B
:10450000BB610122FB699A401300190002202B4B6A
:1045100098471423FB181800294B98477B685A7E4C
:104520001423FB181A70BB69DBB21422BA181100ED
:104530001800244B9847BB69DBB21800224B984700
:104540007B685B7E00211800204B9847FB681B6846
:104550001722BC181800184B9847030023701C4AF8
:104560001723FB181B78110018001A4B98471723C4
:10457000FB181A78184B9200F968D150FB68242276
:1045800000219954FB68252200219954FB680022E0
:10459000DA847B681A7EFB685A727B6A10221A6082
:1045A0007A68FB68110018000C4B9847030018004C
:1045B000BD460BB090BDC046017A0000AD42000080
:1045C00095420000ED85000031860000B9770000BB
:1045D000D5470000657A00002C05002051430000FB
:1045E00080B500AF024B9847C046BD4680BDC0466F
:1045F000397C000080B500AF024B9847C046BD46ED
:1046000080BDC0468D7C000080B584B000AF78606E
:104610000A00FB1C1A707B681B68FB600B4B9847F9
:10462000FB6800225A83FB1C1B78002B03D0FB681D
:1046300000225A6003E0FB688022D2025A60044BD9
:104640009847C046BD4604B080BDC046E145000065
:10465000F545000080B584B000AF78607B681B68CA
:10466000FB60FB681B7EDB07DB0FDBB2002B02D09D
:10467000FB6801221A76FB6802221A76C046BD4604
:1046800004B080BD80B584B000AF78607B681B68E3
:10469000FB607B68DB6A591C7A68D162FA68282162
:1046A000525CD2B21A707B681B8D013B9AB27B6858
:1046B0001A85C046BD4604B080BD80B584B000AF49
:1046C00078607B681B68FB607B68DB6A591C7A68D2
:1046D000D1621B78D9B2FB68282299547B681B8D64
:1046E000013B9AB27B681A85C046BD4604B080BDC6
:1046F00080B584B000AFF860B960FB1D1A70FB1D77
:104700001B78FA6802339B00D3180433BA681A6026
:10471000FB6824229B5CDBB25AB2FB1D1B78012193
:1047200099400B005BB213435BB2D9B2FB68242201
:104730009954C046BD4604B080BD80B584B000AF7A
:10474000786039607B681B8D002B01D0052316E053
:104750003B685A687B68DA623B681A887B681A850E
:104760003B681A887B68DA847B683122052199547A
:104770007B681B68FB60FB6807229A7500231800A2
:10478000BD4604B080BD80B584B000AF78603960AC
:104790007B681B8D002B01D0052316E03B685A680F
:1047A0007B68DA623B681A887B681A853B681A88DE
:1047B0007B68DA847B683122052199547B681B6809
:1047C000FB60FB6807229A7500231800BD4604B001
:1047D00080BD000080B586B000AF0200FB1D1A70DE
:1047E000FB1D1A78C64B9200D3587B617B691B680E
:1047F0003B610F23FB187A692521525C1A707B6993
:1048000024229B5CDAB20F23FB180F217918097858
:104810000A401A703B691B7EDBB21A000223134068
:1048200000D1B4E07B69DB8C9AB27B691B8D9A4224
:104830001BD07B6930229B5CDBB2002B15D17B69DE
:104840003122002199547B690022DA847B6900229D
:104850001A850F23FB181B780222134027D07B698F
:104860001B697A691000984721E07B69DB8C9AB25A
:104870007B691B8D9A421AD07B6930229B5CDBB22C
:10488000012B14D17B693122002199547B690022CC
:10489000DA847B6900221A850F23FB181B7801221A
:1048A000134004D07B69DB687A69100098473B6944
:1048B0005B8B9BB21A00432313400ED07B693122DD
:1048C000102199540F23FB181B782022134004D089
:1048D0007B691B6A7A69100098477B695B7A002BB9
:1048E00005D07B6900211800864B984745E03B695D
:1048F0005B8B9BB21A00082313401FD07B693022C8
:10490000012199540F23FB181B780422134004D073
:104910007B695B697A69100098477B69DB8C9BB285
:10492000002B05D17B6900211800764B984724E0C5
:104930007B6901211800734B98471EE07B69302288
:10494000002199540F23FB181B780822134004D030
:104950007B699B697A69100098477B69DB8C9BB205
:10496000002B05D17B6900211800664B984704E0B5
:104970007B6901211800634B98477B691800624BE3
:1049800098477B69012118005E4B9847D8E03B6946
:104990001B7EDBB21A000123134054D03B69012275
:1049A0001A763B6905221A757B6925229B5CDBB26E
:1049B0001A000423134008D17B6925229B5CDBB2DB
:1049C000082B02D03B6902221A757B6931229B5C5D
:1049D000DBB21E2B00D1B3E07B6931229B5CDBB2E2
:1049E000102B00D1ACE07B693122002199547B6906
:1049F0000022DA847B6900221A850F23FB181B78BA
:104A0000022213400BD07B6930229B5CDBB2002B6F
:104A100005D17B691B697A691000984790E00F23E4
:104A2000FB181B780122134000D189E07B693022FA
:104A30009B5CDBB2012B00D082E07B69DB687A698A
:104A4000100098477CE03B691B7EDBB21A00042310
:104A5000134000D174E07B691B8D002B13D07B6960
:104A600030229B5CDBB2012B50D17B69DB8C9AB28C
:104A70007B691B8D9A4249D93B695B8B9BB21A00BB
:104A80000423134042D07B6900221A857B690022EF
:104A9000DA847B6930229B5CDBB2002B1BD17B6903
:104AA00000211800174B98473B695B6880229202EF
:104AB0001A433B695A607B6931221E2199540F23A6
:104AC000FB181B781022134039D07B69DB697A69A7
:104AD0001000984733E07B6900211800094B984784
:104AE0003B695B68802292021A433B695A607B698A
:104AF0003122002199543B6904221A751FE0C046F7
:104B00002C05002009460000554600007B69DB8C1F
:104B10009BB2002B14D07B691B8D002B10D07B69BE
:104B200030229B5CDBB2002B04D17B691800064B62
:104B3000984705E07B691800044B984700E0C046A1
:104B4000C046BD4606B080BD85460000BB4600009D
:104B500080B582B000AF78607B6800221A70C046D2
:104B6000BD4602B080BD000080B582B000AF02003B
:104B70003960FB1D1A70FB1D1B78012B0AD0022B1C
:104B80000FD0002B14D10E4B0D4A91693A680A439D
:104B90009A610FE00A4B0A4AD1693A680A43DA611E
:104BA00008E0074B064A116A3A680A431A6201E0B4
:104BB000172300E000231800BD4602B080BDC046A8
:104BC0000004004080B582B000AF78607B6880222E
:104BD0001A707B6800225A707B6801229A707B6889
:104BE0000022DA70C046BD4602B080BD80B584B0F8
:104BF00000AF78600023FB600CE00A4BFA6892007B
:104C0000D2587B689A4202D1FB68DBB206E0FB68AF
:104C10000133FB60FB68022BEFD900231800BD466F
:104C200004B080BD38B6010090B585B000AF7860A3
:104C300039600F23FC183B681800AD4B9847030000
:104C400023707B6800221A600F23FB181A78A94B87
:104C50009200D2587B685A607B6800229A727B6807
:104C60000022DA727B6800221A737B6800225A7273
:104C70007B6800221A727B680022DA617B6800225E
:104C80001A627B6800225A627B6800229A627B6803
:104C900000221A757B6800225A757B6800229A757B
:104CA0007B680022DA757B6800221A767B68002216
:104CB0005A767B6800221A747B6800225A747B68DB
:104CC00000229A747B680022DA747B682C2200210F
:104CD00099547B682D22002199547B682E22002153
:104CE00099547B682F22002199547B68302200213F
:104CF00099547B683122002199547B68322200212B
:104D000099547B683322002199547B683422002116
:104D100099547B683522002199547B683622002102
:104D200099547B683722002199547B6838220021EE
:104D300099547B683922002199547B683A220021DA
:104D400099547B683B22002199547B683C220021C6
:104D500099547B683D22002199547B683E220021B2
:104D600099547B683F22002199547B68402200219E
:104D700099547B684122002199547B68422200218A
:104D800099547B684322002199547B684422002176
:104D900099547B684522002199547B684622002162
:104DA00099547B684722002199547B68482200214E
:104DB00099547B684922002199547B684A2200213A
:104DC00099547B684B22002199547B684C22002126
:104DD00099547B684D22002199547B684E22002112
:104DE00099547B684F22002199547B6850220021FE
:104DF00099547B685122002199547B6852220021EA
:104E000099547B685322002199547B6854220021D5
:104E100099547B685522002199547B6856220021C1
:104E200099547B685722002199547B68982200216D
:104E300099547B6800229A657B6800229A677B6898
:104E40009922002199547B680022DA657B68002250
:104E5000DA677B689A22002199547B6800221A66DF
:104E60007B688022002199507B689B220021995405
:104E70007B6800225A667B688422002199507B68F7
:104E80009C22002199547B6800229A667B688822C4
:104E9000002199507B689D22002199547B68002253
:104EA000DA667B688C22002199507B689E22002163
:104EB00099547B6800221A677B68902200219950E0
:104EC0007B689F22002199547B6800225A677B6887
:104ED0009422002199507B68A022012199547B687B
:104EE000A12200219954C046BD4605B090BDC046E0
:104EF000ED4B000054B6010080B586B000AFB9603C
:104F00007A600F23FB18021C1A7000237B610023B8
:104F10003B611DE0BA683B69D31810331B78012B45
:104F200013D10F23FB181B781B4AD35C1A003B6973
:104F30009A4201DA17232AE080235A043B699A40F7
:104F400013001A007B6913437B613B6901333B61AA
:104F50003B69032BDEDDBB68A1229B5C002B04D0E8
:104F60007B698022120113437B61BB681B7B1B039F
:104F70001A007B6913437B61BB68DB7A1B021A0052
:104F80007B6913437B617B687A691A600023180090
:104F9000BD4606B080BDC04660B6010080B586B093
:104FA00000AFB9607A600F23FB18021C1A70172338
:104FB000FB1800221A70BB681B7A002B07D017233E
:104FC000FB181722BA18127804210A431A70BB681A
:104FD0005B7A012B07D11723FB181722BA18127816
:104FE00001210A431A707B681722BA1812781A70C6
:104FF000C046BD4606B080BD80B588B000AFB96080
:105000007A600F23FB18021C1A700F23FB181A7802
:105010001B23FB183E498A5C1A700023FB616EE07B
:10502000FA6913009B009B185B002833BA68D318F9
:1050300004337B617B695B7A1B22BA1812789A422F
:1050400001D817235FE07B691B780F2B01D9172349
:1050500059E07B691B781B061A00F0231B051A40D8
:105060007B695B781B041900FF231B040B401A4368
:105070007B699B78002B01D0802300E000231A433A
:105080007B69DB78002B01D0082300E000231A4362
:105090007B691B79002B01D0102300E000231A4309
:1050A0007B695B79190003230B401A437B699B7969
:1050B0005B01190060230B401A437B69DB791B02FB
:1050C0001900C0239B000B401A437B691B7A1B030A
:1050D0001900E023DB010B401A437B695B7A9B02DA
:1050E0001900C0231B010B4013433B61FB699B006C
:1050F0007A68D3183A691A60FB690133FB61FB696E
:10510000012B8DDD00231800BD4608B080BDC046D0
:1051100060B6010080B588B000AFB9607A600F2337
:10512000FB18021C1A700F23FB181A781723FB18A0
:105130002D498A5C1A700023BB610023FB6148E0A3
:10514000BA685021FB69D3185B181B78002B10D06C
:105150001723FB181A78FB699A4201D817233FE0FE
:1051600080235A02FB699A4013001A00BB6913435B
:10517000BB61BA68FB691C335B00D31809331B7829
:10518000002B23D01723FB181A78FB699A4201D809
:10519000172325E0BA68FB691C335B00D318093379
:1051A0001B78022B0AD10223FF331A00FB699A40B5
:1051B00013001A00BB691343BB6107E00122FB69BE
:1051C0009A4013001A00BB691343BB61FB690133AA
:1051D000FB61FB69072BB3D97B68BA691A600023AE
:1051E0001800BD4608B080BD64B6010080B588B027
:1051F00000AFB9607A600F23FB18021C1A700F23EE
:10520000FB181A781723FB181D498A5C1A70BB68B3
:1052100010333B613B695B7A1B011A0030231A4053
:105220003B691B7A190007230B401343BB61002322
:10523000FB611AE03A69FB69D31804331B78002B31
:1052400010D01723FB181A78FB699A4201DC172348
:1052500012E080235A02FB699A4013001A00BB69CE
:105260001343BB61FB690133FB61FB69032BE1DD88
:105270007B68BA691A6000231800BD4608B080BD7B
:1052800060B6010090B591B000AFF860B9607A6087
:105290003B23FC18BB681800C44B984703002370DD
:1052A0003B23FB181A78C24B9200D35819000220F6
:1052B000C04B9847BB681B680222134001D01C23D7
:1052C000BEE1BB681B680122134001D01C23B7E17B
:1052D0003B23FB181A78B84B9200D3587B637B684A
:1052E0001A687B6B9A4204D87B685A687B6B9A4237
:1052F00001D91723A4E10023FB630EE07A68FB6B5E
:1053000006339B00D31804331A687B6B9A4201D989
:10531000172395E1FB6B0133FB63FB6B032BEDDD87
:105320000023FB6319E07A689821FB6BD3185B18A4
:105330001B7801225340DBB2002B0AD13B23FB1820
:105340001B789E4AD35C1A00FB6B9A4202DC17233F
:1053500076E1C046FB6B0133FB63FB6B072BE2DDA1
:105360000023FB623323FC182C23FA1879683B23B3
:10537000FB181B781800924B9847030023703323C7
:10538000FB181B78002B03D03323FB181B7857E145
:105390002B23FA1879683B23FB181B781800894BDC
:1053A00098473323FC182023FA1879683B23FB180D
:1053B0001B781800844B9847030023703323FB1895
:1053C0001B78002B03D03323FB181B7838E1002314
:1053D000FB613323FC181C23FA1879683B23FB1864
:1053E0001B781800794B9847030023703323FB1870
:1053F0001B78002B03D03323FB181B7820E13323C9
:10540000FC181823FA1879683B23FB181B7818003E
:105410006F4B9847030023703323FB181B78002B36
:1054200003D03323FB181B780AE10023FB6309E058
:10543000FA68FB6B9B00D318043300221A60FB6BE5
:105440000133FB63FB6B0B2BF2DDFB6800225A631D
:10545000FB6800229A633B23FB181A785D4B92008D
:10546000F968D150FB68BA681A607B68A022995C21
:10547000FB683C2299541423FB181800564B98479C
:105480007B689A7A1423FB181A703B23FB181B784D
:10549000524AD35C1422BA1811001800504B984796
:1054A0003B23FB181B784D4AD35C18004D4B9847A3
:1054B0000023FB632DE07A689821FB6BD3185B18FF
:1054C0001B7801225340DBB2002B1ED11023FB18A6
:1054D0001800454B98477B68FA6B1E329200D358F0
:1054E000DAB21023FB181A701023FB1801225A702D
:1054F0007B68FA6B16329200D358DBB21022BA18CE
:1055000011001800394B984700E0C046FB6B01338F
:10551000FB633B23FB181B78284AD35C1A00FB6B08
:105520009A42C8DCFA6ABB681A60C046BB689B68CE
:1055300004221340FAD1BB68FF221A71C046BB682F
:105540009B6804221340FAD12B23FB181A78BB68FE
:105550005A712023FB181A68BB68DA602023FB18F5
:105560005A68BB681A61FA69BB689A61C046BB6831
:105570009B681F4A1340FAD1BA69BB68DA63C04618
:10558000BB689B6810221340FAD17B681A68BB681D
:105590005A63C046BB689B68164A1340FAD17B68C1
:1055A0005A68BB681A640023FB633FE0ED4B0000C0
:1055B00048B60100694B000054B6010064B6010012
:1055C000F94E00009D4F0000F94F000015510000FA
:1055D000ED51000010050020514B000044B60100C1
:1055E000ED85000031860000C54B0000D988000021
:1055F0004000020080000400C046BB689B6812495E
:10560000FA6B91400A001340F7D17A68FB6B0633BE
:105610009B00D31804331A68B968FB6B10339B00E6
:10562000CB1804331A60FB6B0133FB633B23FB187D
:105630001B78064AD35C1A00FB6B9A42DCDC002321
:105640001800BD4611B090BD0001080060B6010011
:1056500090B589B000AFF86008007A6019000B239C
:10566000FB18021C1A700A23FB180A1C1A70FB682C
:105670001B68FB611B23FC18FB691800284B98472B
:10568000030023701B23FB181B78264AD35C0B22D4
:10569000BA1812789A4201D317233DE01B23FB1856
:1056A0001A78214B9200D3587B617A687B699A42C1
:1056B00001D9172330E00A23FB181B78002B14D0E4
:1056C000C046FB699B680B22BA1812788021090337
:1056D00091400A001340F4D10B23FB181A78FB69A0
:1056E0001C3292007968D15015E0C046FB699B6876
:1056F0000B22BA1812788021490091400A00134009
:10570000F4D10B23FB181B78FA6910339B00D318D4
:1057100004337A681A6000231800BD4609B090BDB2
:10572000ED4B000060B6010054B6010090B585B0A5
:1057300000AFF8607A600B23FB180A1C1A70FB6834
:105740003C229C5C7A680B23FB181978F8682300CC
:10575000034CA04703001800BD4605B090BDC046ED
:105760005156000080B582B000AF78607B6800229F
:105770001A70C046BD4602B080BD000080B582B040
:1057800000AF02003960FB1D1A70FB1D1B78012B56
:105790000AD0022B0FD0002B14D10E4B0D4A916969
:1057A0003A680A439A610FE00A4B0A4AD1693A689B
:1057B0000A43DA6108E0074B064A116A3A680A436D
:1057C0001A6201E0172300E000231800BD4602B072
:1057D00080BDC0460004004080B582B000AF786054
:1057E0007B6880221A707B6800225A707B680122D5
:1057F0009A707B680022DA70C046BD4602B080BD58
:1058000080B584B000AF78607B681B68FB60FB6884
:10581000DB7BDBB21A00802313405A1E9341DBB2BC
:105820001800BD4604B080BD90B587B000AF786069
:105830000823FB180D4A13CA13C300237B610DE034
:105840000823FB187A699200D2587B689A4202D1E9
:105850007B69DBB206E07B6901337B617B69022BEC
:10586000EED900231800BD4607B090BD68B6010010
:1058700090B58DB000AFF860B9607A602E23FB1848
:1058800000221A802D23FB1800221A702C23FB18EB
:1058900000221A702923FC18BB681800BD4B9847DA
:1058A000030023702423FB18BB4A118819809278C7
:1058B0009A701C23FB18B94A1168196092889A8063
:1058C0002B23FB1800221A700EE02B23FB181A78EA
:1058D000FB68023292000021D1502B23FB181A786A
:1058E0002B23FB1801321A702B23FB181B78032B78
:1058F000EBD9FB6800221A76FB6800225A7629232E
:10590000FB181A78A64B9200F968D150FB68BA6868
:105910001A607B689B78082B08D12923FB181B7819
:1059200003330122134001D01723C2E17B689A7828
:10593000FB681A71BB681B889BB21A0001231340D5
:1059400001D00523B5E1BB68DB7BDBB21A00102375
:10595000134001D01C23ACE1BB681B889BB21A002A
:105960000223134001D01C23A3E17B681B7C002B86
:1059700017D01823FB1818008A4B98477B689B693F
:10598000DAB21823FB181A701823FB1801225A7078
:105990007B685B69DBB21822BA1811001800824BD1
:1059A00098477B681B7F002B17D01823FB18180023
:1059B0007C4B98477B685B6ADAB21823FB181A7035
:1059C0001823FB1801225A707B681B6ADBB218226D
:1059D000BA1811001800744B98472923FB181A783D
:1059E0001C23FB185200D35A190002206F4B984712
:1059F0007B689B78082B0BD12923FB181B785A1C3A
:105A00001C23FB185200D35A19000220674B9847F9
:105A10001423FB181800664B98477B681A781423E8
:105A2000FB181A702923FB181B782422BA18D35CA0
:105A30001422BA18110018005E4B98472923FB184E
:105A40001B782422BA18D35C18005B4B98477B68FC
:105A50009A787B689B791343DBB29AB27B681B8987
:105A6000134399B27B689A882E23FB180A431A8045
:105A70007B685B78002B08D02E23FB182E22BA18E7
:105A80001288802109010A431A80C046FB68180069
:105A90004A4B9847031EF9D1BB682E22BA181288C8
:105AA0001A807B685B7B002B03D02D23FB1804221C
:105AB0001A707B689B7B002B07D02D23FB182D22AF
:105AC000BA18127801210A431A70C046FB68180000
:105AD0003A4B9847031EF9D1BB68FF221A712D2358
:105AE000FB181B78002B0BD0C046FB681800334B0B
:105AF0009847031EF9D1BB682D22BA1812785A7143
:105B00002C23FB187A68927A1A702A23FB18002239
:105B10001A701CE02A23FB181B787A68D318DB7AEA
:105B2000002B0DD02A23FB181B7810229A4013005B
:105B3000D9B22C23FB182C22BA1812780A431A70F7
:105B40002A23FB181A782A23FB1801321A702A23F9
:105B5000FB181B78012BDDD9C046FB681800174BDA
:105B60009847031EF9D1BB682C22BA1812789A7193
:105B7000C046FB681800114B9847031EF9D1FB681B
:105B80001B79042B1CD0082B00D16EE0002B49D0D0
:105B90008EE0C0462958000074B6010078B60100B6
:105BA0001C050020D9570000D98800007D5700004F
:105BB00065570000ED8500003186000001580000A7
:105BC000C046FB6818003D4B9847031EF9D17B681F
:105BD00028229A5CBB681A74C046FB681800374BD1
:105BE0009847031EF9D17B6829229A5CBB681A7515
:105BF000C046FB681800314B9847031EF9D17B68FB
:105C00002A229A5CBB681A76C046FB6818002B4BA8
:105C10009847031EF9D17B682B229A5CBB685A76A1
:105C2000002346E0C046FB681800244B9847031E3B
:105C3000F9D17B681A8DBB681A82C046FB681800D0
:105C40001E4B9847031EF9D17B685A8DBB681A8397
:105C5000C046FB681800194B9847031EF9D17B68B2
:105C60009A8DBB685A83002323E0C046FB68180066
:105C7000124B9847031EF9D17B689A6ABB681A6178
:105C8000C046FB6818000D4B9847031EF9D17B688E
:105C9000DA6ABB689A61C046FB681800074B9847F0
:105CA000031EF9D17B681A6BBB68DA61002300E040
:105CB00017231800BD460DB090BDC0460158000026
:105CC00080B584B000AF78607B681B68FB60C0461D
:105CD0007B6818000E4B9847031EF9D17B681B792F
:105CE000042B04D0082B0AD0002B04D00AE0FB6858
:105CF0001B7CDBB207E0FB681B8A9BB203E0FB68FE
:105D00001B6900E000231800BD4604B080BDC046FA
:105D10000158000080B582B000AF78607B68002237
:105D20001A70C046BD4602B080BD000080B582B08A
:105D300000AF02003960FB1D1A70FB1D1B78012BA0
:105D40000AD0022B0FD0002B14D10E4B0D4A9169B3
:105D50003A680A439A610FE00A4B0A4AD1693A68E5
:105D60000A43DA6108E0074B064A116A3A680A43B7
:105D70001A6201E0172300E000231800BD4602B0BC
:105D800080BDC0460004004080B582B000AF78609E
:105D90007B6880221A707B6800225A707B6801221F
:105DA0009A707B680022DA70C046BD4602B080BDA2
:105DB00080B500AF054B9B78DBB21A00022313407D
:105DC0005A1E9341DBB21800BD4680BD0020004141
:105DD00080B584B000AF78607B681B68FB60FB68AF
:105DE000DB695A1E9341DBB21800BD4604B080BD8A
:105DF00080B582B000AF7860C0467B681800044B65
:105E00009847031EF9D1C046BD4602B080BDC046CA
:105E1000D15D0000B0B58CB002AF786039607B68AE
:105E20001B68BB617B681B681800A84B9847030080
:105E30007B617B6914333B6100237B6200233B62FF
:105E40000A23FB1800221A801F23FB1800221A7055
:105E50001E23FB1810221A703B681B8A8022D20175
:105E600093421CD08022D201934206DC002B0DD03D
:105E700080229201934224D035E0C022D201934285
:105E800028D080221202934212D02CE01F23FB184C
:105E900000221A701E23FB1810221A7023E01F2301
:105EA000FB1800221A701E23FB1808221A701AE031
:105EB0001F23FB1800221A701E23FB1803221A70DE
:105EC00011E01F23FB1801221A701E23FB18102259
:105ED0001A7008E01F23FB1801221A701E23FB18FA
:105EE00008221A70C0463B681A683B68DB681A4390
:105EF0003B685B6913433A68128A13433A68127E1F
:105F0000120213433A682621525C520713437B6204
:105F10001D23FB1800221A703B685B68FB60FB685E
:105F2000002B1ED08022520593424FD13B6827227E
:105F30009B5C01225340DBB2002B46D03B681D6ABC
:105F40003B69DBB21800624B984701001D23FC1827
:105F50000A23FB181A0028005E4B984703002370A1
:105F600033E03B6827229B5C002B14D03B68186A07
:105F70003B68996A1D23FC181F23FB181D780A2310
:105F8000FA181E23FB181B7800932B00524DA847CC
:105F9000030023701AE03B681D6A3B69DBB21800FE
:105FA0004B4B98471D23FC181F23FB1819780A2315
:105FB000FA181E23FB181B7800930B000100280021
:105FC000454DA8470300237000E0C0461D23FB1881
:105FD0001B78002B03D01D23FB181B7871E03B6856
:105FE0005B7E002B03D03B689A7EBB699A737B680B
:105FF00018003A4B98470A23FB181A88BB699A8104
:106000007A6AFB6813437B623B6827229B5C012210
:106010005340DBB2002B03D07B6A042213437B6224
:106020003B685B7E9A023B681B7F5B021A433B68BE
:106030005B7F1B021A433B6824215B5C5B041A43B1
:106040003B6825215B5C1B0413433B623B68DB7AA6
:106050001A003B6A13433B623B681B89FF2B0BD042
:106060007B6A8022520413437B623B681B891A00BF
:106070003B6A13433B6208E03B68DB7E002B04D0A5
:106080007B6A8022D20413437B623B682C229B5C98
:10609000002B03D1124B9847031E03D07B6A80224A
:1060A00013437B627B6818000C4B9847BB693A6AC4
:1060B0005A607B681800094B9847BB697A6A1A6076
:1060C00000231800BD460AB0B0BDC046017A0000EA
:1060D000118700004F750000CD750000F15D0000D4
:1060E000B15D000090B593B000AFF860B9607A6020
:1060F0003B23FB1800221A70FB68BA681A60FB6821
:106100001B687B63FB681B681800864B984703007D
:106110003B633B6B0233FB623B6B1433BB627B6BB9
:106120001B680122134001D00523F6E07B6B1B683E
:106130000222134001D01C23EFE00122FB6A9A40A7
:10614000130019000220784B98472423FB181800ED
:10615000764B98477B682D229A5C2423FB181A7093
:10616000BB6ADBB22422BA1811001800704B9847A2
:10617000BB6ADBB218006F4B98477B682D229B5C93
:10618000002118006C4B98477B68DA7AFB685A71DB
:106190007B6824229A5CFB689A717B6825229A5C52
:1061A000FB68DA717B68DA7EFB681A727B681A7F9B
:1061B000FB685A723B23FC187A68FB6811001800D0
:1061C0005E4B9847030023703B23FB181B78002B82
:1061D00003D03B23FB181B789FE02023FB181800FB
:1061E000574B98472023FB1800225A702023FB1896
:1061F00000229A707B681A6B1023FB181A607B6868
:106200005A6B1023FB185A607B689A6B1023FB189B
:106210009A607B68DA6B1023FB18DA604723FB185F
:1062200000221A702CE04723FB181A781023FB1861
:106230009200D3583B643B6C002B09D14723FB18D9
:106240001A78BB68110018003E4B984703003B6466
:106250003B6C01330DD03B6CDAB22023FB181A7073
:106260003B6C1B0CDBB22022BA1811001800364B15
:1062700098474723FB181A784723FB1801321A70F6
:106280004723FB181B78032BCDD90023FB630AE0BF
:10629000FA68FB6B02339B00D318043300221A60A8
:1062A000FB6B0133FB63FB6B052BF1D9FB68002211
:1062B0009A62FB6800225A62FB680022DA85FB685A
:1062C00000229A85FB68302200219954FB68312214
:1062D00000219954FB68322200219954FB68332233
:1062E00000219954FB681B682722BC1818000D4B2D
:1062F000984703002370154A2723FB181B781100C9
:106300001800134B98472723FB181A78114B92005B
:10631000F968D1503B23FB181B781800BD4613B019
:1063200090BDC046017A00002D5D0000155D0000A3
:10633000ED85000031860000B9770000155E000091
:10634000895D000045780000D98800005167000091
:10635000657A00002C05002080B584B000AF78601D
:106360000A00BB1C1A807B681B68FB607B68DB79BA
:1063700001225340DBB2002B01D01C2317E07B68C5
:10638000DB8D9BB2002B01D0052310E07B68180049
:10639000094B9847FB68BA1C12881A85C046FB68EF
:1063A0001B7EDBB21A0002231340F8D00023180032
:1063B000BD4604B080BDC046F15D000080B58AB026
:1063C00000AFF860B960BB1D1A80BB1D1B88002B95
:1063D00001D117237EE0FB68DB7901225340DBB259
:1063E000002B01D01C2375E0FB681B687B61FB68F8
:1063F00018003A4B98472623FB1800221A8048E0E1
:1064000000233B620FE07B691B7EDBB21A00012395
:1064100013400DD13B6A324A934201D1122359E015
:106420003B6A01333B623B6A2D4A9342EBD900E061
:10643000C0462623FB181B882622BA18591C118037
:106440001A00BB689B181A781E23FB181A80FB6879
:106450005B79012B15D12623FB181B882622BA183D
:10646000591C11801A00BB689B181B781B021AB2BA
:106470001E23FB1800215B5E13431AB21E23FB1878
:106480001A801E23FB181A88FB6811001800154B90
:106490009847BB1D1B88BA1D591E1180002BAFD118
:1064A0000023BB610FE07B691B7EDBB21A00022375
:1064B00013400DD1BB690A4A934201D1122309E06E
:1064C000BB690133BB61BB69054A9342EBD900E06C
:1064D000C04600231800BD460AB080BDF15D000033
:1064E000FFFF00005963000080B500AF024B9847E2
:1064F000C046BD4680BDC046397C000080B500AFB7
:10650000024B9847C046BD4680BDC0468D7C00000A
:1065100080B584B000AF78607B681B68FB60FB6867
:10652000DB695A1E9341DBB21800BD4604B080BD42
:1065300080B582B000AF7860C0467B681800044B1D
:106540009847031EF9D1C046BD4602B080BDC04683
:106550001165000080B586B000AFF860B960BB1D62
:106560001A80FB681B687B610F4B9847FB68DB8DCB
:106570009BB2002B03D00D4B9847052310E0FB681E
:10658000BA1D1288DA85094B9847FB68BA689A6287
:10659000FB683322052199547B6901229A750023F7
:1065A0001800BD4606B080BDE9640000FD6400002F
:1065B00080B586B000AFF860B960BB1D1A80FB687B
:1065C0001B687B61164B9847FB689B8D9BB2002B29
:1065D00003D0144B984705231EE0FB68BA1D1288B0
:1065E0009A85104B9847FB68BA685A62FB6832225A
:1065F000052199547B6904229A75FB681B7A002B4C
:1066000002D07B6920229A75FB685B7A002B02D04E
:106610007B6908229A7500231800BD4606B080BD2C
:10662000E9640000FD64000080B584B000AFF8604C
:10663000B960BB1D1A80BB1D1B88002B01D117231D
:1066400010E0FB68DB7901225340DBB2002B01D064
:106650001C2307E0BB1D1A88B968FB681800034BB0
:10666000984703001800BD4604B080BD5565000082
:1066700080B584B000AFF860B960BB1D1A80BB1D47
:106680001B88002B01D1172310E0FB689B790122A6
:106690005340DBB2002B01D01C2307E0BB1D1A883E
:1066A000B968FB681800034B984703001800BD4603
:1066B00004B080BDB165000080B584B000AF7860E3
:1066C0000A00FB1C1A707B681B68FB60FB1C1B78B4
:1066D000002B02D0012B07D00DE0FB6804221A76B4
:1066E0007B6800229A8506E0FB6802221A767B68A6
:1066F0000022DA85C046C046BD4604B080BD80B5E4
:1067000084B000AF78600A00FB1C1A70FB1C1B7879
:10671000002B02D0012B07D00DE00F23FB187A6865
:106720003221525C1A700BE00F23FB187A68332178
:10673000525C1A7004E00F23FB1817221A70C0462F
:106740000F23FB181B781800BD4604B080BD000065
:1067500080B588B000AF0200FB1D1A70FB1D1A78CF
:10676000A34B9200D358BB61BB691B687B61BB69BB
:106770001800A04B98477B691B7EDAB21223FB18E6
:106780001A807B699B7DDBB29AB21223FB1812211F
:10679000791809880A401A80BB6930229B5CBA6963
:1067A0003121525C1340DAB21023FB181A801223F5
:1067B000FB181B880122134044D0BB69DB8D9BB2C0
:1067C000002B3CD0BB699B6A1B78DAB21C23FB18F8
:1067D0001A80BB699B6A5A1CBB699A62BB695B7968
:1067E000012B13D1BB699B6A1B78DBB21B021AB267
:1067F0001C23FB1800215B5E13431AB21C23FB18F9
:106800001A80BB699B6A5A1CBB699A621C23FB18DD
:106810001B88DB05DB0D9AB27B691A85BB69DB8DB2
:106820009BB2013B9BB2BA69191CD185002B09D1DF
:106830007B6901221A757B6902229A7502E07B69E5
:1068400001221A751223FB181B880222134011D053
:106850007B6902221A75BB693322002199541023E7
:10686000FB181B880122134004D0BB69DB68BA699E
:10687000100098471223FB181B880422134000D1F4
:10688000BDE0BB699B8D9BB2002B00D1B4E07B695E
:106890005B8B9BB2DAB21F23FB183F210A401A70B0
:1068A0001F23FB181B780822134007D01F23FB1857
:1068B0001F22BA18127808218A431A701F23FB1866
:1068C0001B78002B50D01F23FB181B78022213408B
:1068D00007D0BB6932221A2199547B6902225A835C
:1068E00036E01F23FB181B780422134007D0BB6936
:1068F00032221E2199547B6904225A8328E01F23E7
:10690000FB181B780122134007D0BB6932221321E8
:1069100099547B6901225A831AE01F23FB181B78C4
:106920001022134007D0BB693222422199547B695F
:1069300010225A830CE01F23FB181B7820221340DF
:1069400006D0BB693222412199547B6920225A83A7
:106950001023FB181B880422134050D0BB695B69CD
:10696000BA69100098474AE07B691B8D9AB20E23E2
:10697000FB18D205D20D1A80BB695B6A0E22BA18C9
:106980001288D2B21A70BB695B6A5A1CBB695A6220
:10699000BB695B79012B0DD1BB695B6A0E22BA180A
:1069A0001288120A92B2D2B21A70BB695B6A5A1C80
:1069B000BB695A62BB699B8D9BB2013B9BB2BA69B2
:1069C000191C9185002B1AD17B6904221A75BB69A9
:1069D0003222002199541023FB181B8802221340F5
:1069E0000DD0BB691B69BA691000984707E0C04623
:1069F0002C050020316500007B6904221A751223E2
:106A0000FB181B881022134010D07B6910221A75C6
:106A10007B6910221A761023FB181B881022134062
:106A200004D0BB69DB69BA69100098471223FB18D0
:106A30001B882022134010D07B6920221A757B69A5
:106A400020221A761023FB181B880822134004D03A
:106A5000BB699B69BA69100098471223FB181B8811
:106A60000822134010D07B6908221A757B6908221E
:106A70001A761023FB181B882022134004D0BB6910
:106A80001B6ABA6910009847C046BD4608B080BD71
:106A900080B582B000AF78607B6880221A707B6816
:106AA00000225A707B6801229A707B680022DA709B
:106AB000C046BD4602B080BD80B582B000AF7860F0
:106AC0007B6800221A70C046BD4602B080BD00003F
:106AD00080B582B000AF02003960FB1D1A70FB1D4B
:106AE0001B78012B0AD0022B0FD0002B14D10E4B98
:106AF0000D4A91693A680A439A610FE00A4B0A4AC3
:106B0000D1693A680A43DA6108E0074B064A116A1C
:106B10003A680A431A6201E0172300E000231800D4
:106B2000BD4602B080BDC0460004004080B500AF45
:106B3000054B9B78DBB21A00022313405A1E934187
:106B4000DBB21800BD4680BD0020004190B593B077
:106B500000AF786039607B681B687B637B681B686B
:106B60003B631C23FB181800854B98471C23FB181C
:106B700000225A703B681B78002B03D11C23FB18A2
:106B800000229A703B689A6A0C23FB181A603B68D3
:106B9000DA6A0C23FB185A603B681A6B0C23FB184B
:106BA0009A603B685A6B0C23FB18DA604723FB188A
:106BB00000221A702CE04723FB181A780C23FB18CC
:106BC0009200D3583B643B6C002B09D14723FB1840
:106BD0001A783B6B110018006A4B984703003B641E
:106BE0003B6C01330DD03B6CDAB21C23FB181A70DE
:106BF0003B6C1B0CDBB21C22BA1811001800624B54
:106C000098474723FB181A784723FB1801321A705C
:106C10004723FB181B78032BCDD93B681A787B6878
:106C20005A713B681A7C7B689A713B689A7C7B68D6
:106C3000DA713B681A7D7B681A720A23FB180022FE
:106C40001A800023FB630023BB633B681B78012B86
:106C500029D17B681B6818004C4B98470300FB62E6
:106C6000FB6A1433BB62BB6ADBB21800484B98471F
:106C700003007B623B689B692322BC180A22BA1876
:106C8000796A1800434B9847030023702323FB18AD
:106C90001B78002B01D017236DE00A23FB181B88FB
:106CA000DAB27B6B1A733B681B78002B1AD13B68F6
:106CB0009B69FB633B689B8BBB637B6B5B6A3A683E
:106CC000927F11003A68D27F12040A431A437B6B09
:106CD0005A623B6820229B5C002B03D0BB6B402296
:106CE0001343BB633B685B68FA6B1343FB633B680E
:106CF0009B68FA6B1343FB633B68DB68FA6B1343D7
:106D0000FB633B681B7C1A00BB6B1343BB633B6894
:106D10005B7C002B03D1204B9847031E03D0FB6BF9
:106D200080221343FB633B689B7C002B04D0BB6B2E
:106D3000802292021343BB633B68DB7C002B04D0B0
:106D4000BB6B802292001343BB633B681B7D002B0F
:106D500004D0BB6B802292011343BB637B6B1A6828
:106D6000FB6B1A437B6B1A607B6B5A68BB6B1A43D5
:106D70007B6B5A6000231800BD4613B090BDC0461F
:106D8000916A000045780000D9880000017A00006F
:106D9000118700004F7500002D6B000090B58BB07F
:106DA00000AFF860B9607A60FB68BA681A60FB6887
:106DB0001B683B623B6A1B680222134001D01C2304
:106DC000A6E03B6A1B680122134001D005239FE027
:106DD000FB681B681800504B98470300FB61FB6978
:106DE0000233BB61FB6914337B610122BB699A40AA
:106DF000130019000220494B98471023FB18180074
:106E0000474B98477B6824229A5C1023FB181A7022
:106E10007B69DBB21022BA1811001800414B984769
:106E20007B69DBB21800404B98477B6824229B5C4F
:106E3000002118003D4B98477B681B78012B05D13A
:106E40003B6A1B680C221A433B6A1A607B681B78FA
:106E5000002B05D13B6A1B6808221A433B6A1A6063
:106E60002723FB1800221A7010E02723FB181B7839
:106E7000FA6802339B00D318043300221A602723D8
:106E8000FB181A782723FB1801321A702723FB18E6
:106E90001B78062BE9D9FB680022DA62FB68002226
:106EA0009A62FB6800229A86FB6800221A86FB68B9
:106EB000362200219954FB68372200219954FB683F
:106EC000382200219954FB6803225A72FB68002281
:106ED0001A71FB681B681322BC1818000E4B9847E8
:106EE00003002370124A1323FB181B7811001800AB
:106EF000104B98471323FB181A780F4B9200F96830
:106F0000D1507A68FB68110018000C4B98470300B9
:106F10001800BD460BB090BD017A0000D16A000098
:106F2000B96A0000ED85000031860000B9770000E5
:106F30004D710000657A00002C0500204D6B0000AB
:106F400080B586B000AFF860B960BB1D1A80FB68E1
:106F5000BA1D12889A86FB68BA1D12885A86FB6889
:106F6000BA68DA62FB68382205219954FB6801226D
:106F70005A72FB681B687B61FB685B79002B05D14B
:106F80007B6902221A767B6902229A75FB68DB799B
:106F9000002B03D07B6905229A7502E07B690122F0
:106FA0009A75C046BD4606B080BD000080B584B06D
:106FB00000AFF860B960BB1D1A80BB1D1B88002B99
:106FC00001D117230FE0FB6838229B5CDBB2052B55
:106FD00001D1052307E0BB1D1A88B968FB681800BA
:106FE000034B984700231800BD4604B080BDC0463F
:106FF000416F000080B584B000AF78607B681B688B
:10700000BB607B68DB6A1B78DAB20E23FB181A8040
:107010007B68DB6A5A1C7B68DA627B689B79012B90
:1070200013D17B68DB6A1B78DBB21B021AB20E231A
:10703000FB1800215B5E13431AB20E23FB181A8063
:107040007B68DB6A5A1C7B68DA620E23FB181B889C
:10705000DB05DA0DBB689A627B689B8E9BB2013BB5
:107060009AB27B689A86C046BD4604B080BD0000D7
:1070700080B584B000AF78607B681B68FB60084B0C
:107080001B881A00FB689A627B685B8E9BB2013B8F
:107090009AB27B685A86C046BD4604B080BDC046E1
:1070A0002805002080B584B000AF78607B681B683D
:1070B000FB600A23FB1800221A80FB689A6A0A23E5
:1070C000FB181A807B685B8E9BB2013B9AB27B688F
:1070D0005A86C046BD4604B080BD80B584B000AFBE
:1070E00078607B681B68FB60FB689B6A9AB20A2326
:1070F000FB18D205D20D1A807B689B6A0A22BA1847
:107100001288D2B21A707B689B6A5A1C7B689A629A
:107110007B689B79012B0DD17B689B6A0A22BA1888
:107120001288120A92B2D2B21A707B689B6A5A1CF9
:107130007B689A627B681B8E9BB2013B9AB27B682C
:107140001A86C046BD4604B080BD000080B586B03A
:1071500000AF0200FB1D1A70FB1D1A78B94B92009C
:10716000D3587B617B691B683B617B6937229A5CE2
:107170007B693621595C0F23FB180A401A703B6962
:107180001B7EDAB20C23FB181A803B699B7DDBB2B5
:107190009AB20C23FB180C21791809880A401A802E
:1071A0000C23FB181B880122134041D07B695B79BB
:1071B000012B10D17B695B7ADBB2002B0BD17B6991
:1071C0001800A14B98477B695B8E9BB2002B02D1C4
:1071D0003B6901221A757B695B79012B04D17B69BC
:1071E0005B7ADBB2002B08D17B695B79002B1FD166
:1071F0007B695B7ADBB2002B1AD07B691800934B5A
:1072000098477B699B8E9BB2002B11D13B69012271
:107210001A757B695B7ADBB2012B09D17B69DB795B
:1072200001225340DBB2002B02D03B6902229A7547
:107230000C23FB181B880422134000D17EE03B691D
:107240005B8B9BB21A000423134022D07B695B7ACC
:10725000DBB2012B14D07B6938221E2199547B6943
:1072600003225A723B6905221A750F23FB181B78FB
:107270000822134004D07B699B697A691000984703
:107280003B699A6A0A23FB181A803B6904225A83D5
:1072900054E07B695B7ADBB2012B1ED17B6918005D
:1072A0006B4B98477B695B8E9BB2002B46D13B6949
:1072B00004221A757B693822002199547B690322C4
:1072C0005A720F23FB181B780122134036D07B69BA
:1072D000DB687A691000984730E07B6918005D4BE5
:1072E00098477B691B8E9BB2002B27D17B69382284
:1072F000002199543B6904221A757B695B7ADBB2E1
:10730000022B0BD10F23FB181B780422134015D03E
:107310007B695B697A69100098470FE07B695B7A4B
:10732000DBB2002B0AD10F23FB181B78022213407B
:1073300004D07B691B697A69100098470C23FB18FD
:107340001B880222134046D07B695B79002B1DD13C
:107350003B6907221A753B6902221A767B69032270
:107360005A727B6900229A867B6900221A867B69A1
:107370003822002199540F23FB181B781022134048
:1073800004D07B69DB697A69100098477B695B7977
:10739000012B20D17B695B7ADBB2012B1BD17B698E
:1073A000DB7901225340DBB2002B14D03B6902226F
:1073B0001A757B6903225A727B693822002199541D
:1073C0000F23FB181B780122134004D07B69DB6874
:1073D0007A69100098470C23FB181B880822134079
:1073E00014D07B695B79002B10D13B6908221A7598
:1073F0003B6908221A760F23FB181B7820221340C2
:1074000004D07B691B6A7A69100098470C23FB182B
:107410001B888022134010D03B6980221A753B697B
:1074200080221A760F23FB181B784022134004D0C9
:107430007B695B6A7A6910009847C046BD4606B012
:1074400080BDC0462C05002071700000F56F000063
:10745000A5700000DB70000080B582B000AF7860DE
:107460007B6800221A70C046BD4602B080BDF0B5F0
:107470008DB000AFB860F9603A607B6000230024F3
:107480003B627C6200230024BB61FC613F23FB6202
:1074900053E0FB6A203B002B04DB01229A401300DF
:1074A0007B610BE0FB6A2022D31A0122DA40130031
:1074B0000021FA6A91400A0013437B610122FB6AB2
:1074C0009A4013003B61BB69FC69DB186441BB61F6
:1074D000FC61BB683A691A401500FB687A691A407A
:1074E00016002B00334307D0BB6901221343BB6155
:1074F000FB6900221343FB617A68FB699A4219D841
:107500007A68FB699A4203D13A68BB699A4211D8FA
:10751000B969FA693B687C68C91AA2410B0014007A
:10752000BB61FC613A6A3B6913433B627A6A7B69DF
:1075300013437B62FB6A013BFB62FB6A002BA8DA08
:107540003B6A7C6A18002100BD460DB0F0BD80B5D5
:1075500086B000AFF860B9607A601623FB1800228D
:107560001A80BB683B61BB685A08FB689A4201D22B
:10757000402326E0BB685B083B610AE03A69FB6890
:10758000D31A3B611623FB181A881623FB18013205
:107590001A803A69FB689A42F0D21623FB18162229
:1075A000BA181288013A1A801623FB181B88FF2B81
:1075B00001D9402305E07B681622BA1812881A8088
:1075C00000231800BD4606B080BD0000F0B59DB098
:1075D00000AFF863B9637A633322BA1813700023DB
:1075E0000024BB65FC65002300243B657C6500230B
:1075F0000024BB66FC6600233B6658233022944679
:10760000BC4463441A78FB6B5A43BB6B9A4201D962
:107610004023C6E03323FB181B78002B3DD15823B1
:1076200030229446BC4463441B78DBB23B610023A8
:107630007B61FB6BBB600023FB605C4CBA68FB6842
:1076400038697969A04703000C001B00FB64002324
:10765000BB64BB6B3B6000237B60B86CF96C3A6821
:107660007B68534CA04703000C00BB65FC65002100
:107670000122BB6DFC6DC91AA2410B0014003B65D1
:107680007C653B6D1B0C7A6D16041E433B6D1D041F
:107690003300BB660023FB667DE03323FB181B78B9
:1076A000012B00D077E0372330229446BC4463445A
:1076B00000221A704EE0BB6BBB620023FB62B86A0B
:1076C000F96A03005B0F0A00D2001343FB64030056
:1076D000DB00BB64FB6B3B6200237B6258233022E0
:1076E0009446BC4463441B78DBB2BB610023FB615E
:1076F0002E4CBA69FB69386A796AA04703000C000E
:107700003B647C643B6C7C6CB86CF96C1A002300A5
:10771000274CA04703000C003B66372330229446D9
:10772000BC4463441B783A6ED31A3B663B6EDB085D
:107730003B663B6E1F4A934215D93723302294464D
:10774000BC4463441A78372330218C46BC446344DC
:1077500001321A70372330229446BC4463441B78AC
:10776000072BA8D900E0C046372330229446BC44FA
:1077700063441B78082B01D1402312E037233022C9
:107780009446BC4463441B785B031A003B6E13436E
:10779000BB660023FB66BB6EFC6E9AB27B6B1A80E5
:1077A00000231800BD461DB0F0BDC046158601007F
:1077B0006F740000FF1F000080B584B000AF0200AE
:1077C000FB1D1A70BB1D0A1C1A701A4B1B78012274
:1077D0005340DBB2002B03D1BB1D1B78002B1BD009
:1077E0000C23FB181800144B98470C23FB18FA1DA8
:1077F00012781A700C23FB18190013200F4B9847AE
:1078000013200F4B98470B4BFA1D12785A70094BF7
:1078100001221A70002308E0064B5B78FA1D1278EB
:107820009A4201D1002300E01D231800BD4604B098
:1078300080BDC0460C02002059740000ED85000098
:107840003186000080B582B000AF78600A00FB1C72
:107850001A707B684D4A93423FD04C4A934206D8F7
:107860004B4A93420FD04B4A934221D089E04A4A77
:10787000934200D15BE0494A934200D16CE0484A10
:1078800093423FD07DE0FB1C1B78012B0AD002DC29
:10789000002B05D075E0022B06D0032B06D070E03C
:1078A000404B6FE0404B6DE0404B6BE0404B69E07C
:1078B000FB1C1B78012B0AD002DC002B05D060E0FA
:1078C000022B06D0032B06D05BE003235AE0394B92
:1078D00058E0394B56E0394B54E0FB1C1B78012B28
:1078E0000AD002DC002B05D04BE0022B06D0032B84
:1078F00006D046E0324B45E0324B43E0324B41E0AC
:10790000324B3FE0FB1C1B78012B0AD002DC002B22
:1079100005D036E0022B06D0032B06D031E02C4BED
:1079200030E02C4B2EE02C4B2CE02C4B2AE0FB1CA7
:107930001B78012B0AD002DC002B05D021E0022BA2
:1079400006D0032B06D01CE0254B1BE0254B19E08D
:10795000254B17E0254B15E0FB1C1B78012B0AD0AB
:1079600002DC002B05D00CE0022B06D0032B06D046
:1079700007E01F4B06E01F4B04E01F4B02E01F4BCC
:1079800000E000231800BD4602B080BD0010004298
:1079900000080042000C004200180042001C004297
:1079A0000014004203000400030005000300060069
:1079B000030007000300010003001E0003001F0076
:1079C000030008000300090003000A0003000B0085
:1079D0000300100003001100030012000300130055
:1079E00003000C0003000D0003000E0003000F0055
:1079F000030016000300170003001800030019001D
:107A000090B58BB000AF78600C23FB180F4A13CAF7
:107A100013C313CA13C300237B620EE00C23FB18AD
:107A20007A6A9200D3581A007B689A4202D17B6A24
:107A3000DBB206E07B6A01337B627B6A052BEDD902
:107A400000231800BD460BB090BDC04680B60100B3
:107A500080B582B000AF0200FB1D1A70C046BD4663
:107A600002B080BD80B584B000AF02003960FB1D5C
:107A70001A70134B1B7801225340DBB2002B15D038
:107A80000023FB600CE00F4BFA6892000E49D150C6
:107A90000E4BFA6892000021D150FB680133FB6065
:107AA000FB68052BEFD9064B01221A70FB1D1A78D3
:107AB000044B92003968D150C046BD4604B080BD29
:107AC0000E02002010020020517A00002C05002038
:107AD00090B585B000AF78600823FB180B4A116899
